:020000040000FA
:100000000C94B6000C94DE000C94DE000C94DE0020
:100010000C94DE000C94DE000C94DE000C94DE00E8
:100020000C94DE000C94DE000C94DE000C94DE00D8
:100030000C94DE000C94DE000C94DE000C94DE00C8
:100040000C9499030C94DE000C9467030C94410308
:100050000C94DE000C94DE000C94DE000C94DE00A8
:100060000C94DE000C94DE0008000000BE922449CF
:10007000123EABAAAA2ABECDCCCC4C3E00000080DA
:10008000BEABAAAAAA3E00000000BF000000803F4D
:100090000000000000084178D3BB4387D1133D190D
:1000A0000E3CC3BD4282AD2B3E68EC8276BED98F3A
:1000B000E1A93E4C80EFFFBE01C4FF7F3F0000007E
:1000C000000007634236B79BD8A71A39685618AEA6
:1000D000BAAB558C1D3CB7CC5763BD6DEDFD753E7D
:1000E000F6177231BF000000803F000000002500BD
:1000F00028002B0000000000240027002A00040430
:1001000004040404040402020202020203030303BF
:10011000030301020408102040800102040810209B
:100120000102040810206D696E007470203D2000EB
:100130007309007469203D20006D73090054732019
:100140003D20002044C3A96D6F6E737472617469A1
:100150006F6E2064652063616C63756C204C657103
:10016000003E003C000909090000E30311241FBE02
:10017000CFEFD8E0DEBFCDBF11E0A0E0B1E0E2E517
:10018000F8E102C005900D92A83AB107D9F722E034
:10019000A8EAB1E001C01D92AB39B207E1F710E067
:1001A000C6EBD0E004C02197FE010E94120CC53BB3
:1001B000D107C9F70E9488040C94270C0C94000006
:1001C000AF92BF92CF92DF92EF92FF920F931F9365
:1001D000CF93DF936C017B018B01040F151FEB01A3
:1001E0005E01AE18BF08C017D10759F06991D6015A
:1001F000ED91FC910190F081E02DC6010995892BCC
:1002000079F7C501DF91CF911F910F91FF90EF908A
:10021000DF90CF90BF90AF900895FC01538D448D37
:10022000252F30E0842F90E0821B930B541710F0A1
:10023000CF96089501970895FC01918D828D9817AE
:1002400061F0A28DAE0FBF2FB11D5D968C91928D86
:100250009F5F9F73928F90E008958FEF9FEF0895B7
:10026000FC01918D828D981731F0828DE80FF11D80
:10027000858D90E008958FEF9FEF0895FC01918D9B
:10028000228D892F90E0805C9F4F821B91098F7394
:100290009927089585EB91E00E943E0121E0892B8A
:1002A00009F420E0822F089580E090E0892B29F066
:1002B0000E944A0181110C9400000895FC01A48D54
:1002C000A80FB92FB11DA35ABF4F2C91848D90E078
:1002D00001968F739927848FA689B7892C93A0895B
:1002E000B1898C91837080648C93938D848D9813E5
:1002F00006C00288F389E02D80818F7D8083089578
:10030000EF92FF920F931F93CF93DF93EC0181E065
:10031000888F9B8D8C8D98131AC0E889F98980810C
:1003200085FF15C09FB7F894EE89FF896083E8893F
:10033000F98980818370806480839FBF81E090E031
:10034000DF91CF911F910F91FF90EF900895F62EBE
:100350000B8D10E00F5F1F4F0F731127E02E8C8D58
:100360008E110CC00FB607FCFACFE889F98980819D
:1003700085FFF5CFCE010E945E01F1CFEB8DEC0F32
:10038000FD2FF11DE35AFF4FF0829FB7F8940B8FBA
:10039000EA89FB8980818062CFCF0F931F93CF932F
:1003A000DF938C01D0E0C0E0F801EC0FFD1F6491F9
:1003B000662341F085EB91E00E948001892B11F0CA
:1003C0002196F2CFCE01DF91CF911F910F91089529
:1003D000CF93DF93EC01888D8823B9F0AA89BB897C
:1003E000E889F9898C9185FD03C0808186FD0DC067
:1003F0000FB607FCF7CF8C9185FFF2CF808185FF88
:10040000EDCFCE010E945E01E9CFDF91CF9108953B
:100410002FB7F8946091AD017091AE018091AF015A
:100420009091B0012FBF0895FC0101900020E9F7E1
:100430003197AF01481B590BBC0185EB91E00C943F
:10044000E0008F929F92AF92BF920F931F93CF9332
:10045000DF93CDB7DEB7A1970FB6F894DEBF0FBE1E
:10046000CDBF19A2423008F44AE08E010F5D1F4F44
:10047000842E912CB12CA12CA50194010E94E50B96
:10048000E62FB901CA01EA30F4F4E05DD801EE9339
:100490008D01232B242B252B79F790E080E01097FA
:1004A00019F0CD010E941402A1960FB6F894DEBF98
:1004B0000FBECDBFDF91CF911F910F91BF90AF9035
:1004C0009F908F900895E95CE1CF4F925F926F9279
:1004D0007F928F929F92AF92BF92CF92DF92EF92D4
:1004E000FF920F931F93CF936B017C01742EAC018D
:1004F0009B010E94F40A882399F083E191E0CF9157
:100500001F910F91FF90EF90DF90CF90BF90AF9031
:100510009F908F907F906F905F904F900C941402FB
:1005200046015701E894B7F82FEF3FEF4FE75FE739
:10053000C501B4010E94F40A81110DC02FEF3FEFF5
:100540004FE75FE7C501B4010E943C0818161CF490
:1005500087E191E0D4CF2FEF3FEF4FE75FE4C70192
:10056000B6010E94940918161CF48BE191E0C7CFE4
:100570002FEF3FEF4FE75FECC701B6010E943C0849
:1005800087FDF3CF20E030E0A901C701B6010E944A
:100590003C0810E000E087FF0AC06DE285EB91E0C7
:1005A0000E9480018C01F7FAF094F7F8F094C0E013
:1005B00060E070E080E09FE37C1641F020E030E0F6
:1005C00040E251E40E944108CF5FF6CFA7019601B7
:1005D0000E94D0072B013C010E94B3084B015C0133
:1005E0004AE00E9421027C01E00EF11ECC23C1F101
:1005F000C501B4010E94E2089B01AC01C301B20134
:100600000E94CF074B015C016EE285EB91E00E94F6
:100610008001E80EF91EC15018F120E030E040E200
:1006200051E4C501B4010E94F1092B013C010E9473
:10063000B3084B01B12CA12C4AE0C501B4010E94C2
:100640002102E80EF91EC501B4010E94E2089B01D7
:10065000AC01C301B2010E94CF074B015C01DBCFAB
:10066000C701CF911F910F91FF90EF90DF90CF9036
:10067000BF90AF909F908F907F906F905F904F90C2
:1006800008951F920F920FB60F9211242F933F934C
:100690004F935F936F937F938F939F93AF93BF938A
:1006A000EF93FF9385EB91E00E945E01FF91EF9144
:1006B000BF91AF919F918F917F916F915F914F917A
:1006C0003F912F910F900FBE0F901F9018951F9282
:1006D0000F920FB60F9211242F938F939F93EF9346
:1006E000FF93E091C501F091C6018081E091CB01BB
:1006F000F091CC0182FD1BC090818091CE018F5F73
:100700008F732091CF01821741F0E091CE01F0E08C
:10071000EB54FE4F958F8093CE01FF91EF919F9107
:100720008F912F910F900FBE0F901F901895808181
:10073000F4CF1F920F920FB60F9211242F933F9375
:100740008F939F93AF93BF938091AD019091AE0132
:10075000A091AF01B091B0013091AC0123E0230F23
:100760002D3758F50196A11DB11D2093AC01809342
:10077000AD019093AE01A093AF01B093B001809111
:10078000A8019091A901A091AA01B091AB01019695
:10079000A11DB11D8093A8019093A901A093AA0166
:1007A000B093AB01BF91AF919F918F913F912F91EA
:1007B0000F900FBE0F901F90189526E8230F0296FA
:1007C000A11DB11DD2CFE5EBF1E01382128288EEBC
:1007D00093E0A0E0B0E084839583A683B78385E0AF
:1007E00091E09183808385EC90E09587848784EC09
:1007F00090E09787868780EC90E0918B808B81ECEE
:1008000090E0938B828B82EC90E0958B848B86ECCE
:1008100090E0978B868B118E128E138E148EE2E5EC
:10082000F2E08EE390E0A0E0B0E080839183A283C9
:10083000B38380E290E0958384838EE190E0978398
:100840008683108611861286138614861586168670
:1008500017868EE0808B83E393E3A3E5B0E4818B7E
:10086000928BA38BB48B80E094E0968B858B15A242
:1008700016A217A210A611A612A613A614A611A2BC
:1008800012A213A214A210A2178E10AA17A616A6BF
:1008900015A683E393E3A3EDBFE3878B908FA18F2E
:1008A000B28F83E393E3A3E5BBE3838F948FA58F9C
:1008B000B68F80E090E0ACEBB2E485AB96ABA7AB33
:1008C000B0AF80E090E0A0E3B2EC81AF92AFA3AF15
:1008D000B4AF80E090E0A0E5B2E480938F02909303
:1008E0009002A0939102B0939202109297021092FC
:1008F00098021092990210929A020E940802609344
:1009000093027093940280939502909396020895B7
:10091000CF93DF9300D000D0CDB7DEB7789484B505
:10092000826084BD84B5816084BD85B5826085BDEB
:1009300085B5816085BD80916E00816080936E0079
:10094000109281008091810082608093810080916B
:10095000810081608093810080918000816080931C
:1009600080008091B10084608093B1008091B000DC
:1009700081608093B00080917A00846080937A00D7
:1009800080917A00826080937A0080917A00816001
:1009900080937A0080917A00806880937A00109228
:1009A000C100E091C501F091C60182E08083E09131
:1009B000C101F091C2011082E091C301F091C40124
:1009C00080E180831092CD01E091C901F091CA01CC
:1009D00086E08083E091C701F091C8018081806149
:1009E0008083E091C701F091C80180818860808395
:1009F000E091C701F091C801808180688083E09117
:100A0000C701F091C80180818F7D80830E94080218
:100A10006B017C0120EDC20E27E0D21EE11CF11C0F
:100A20000E9408026C157D058E059F05C8F383E6BC
:100A300091E00E94CD018CE691E00E94140281E6D3
:100A400091E00E94CD0183E491E00E94CD0185E810
:100A500091E00E9414028DE391E00E94CD0160912B
:100A600052027091530280915402909155024AE0D3
:100A70000E94210289E391E00E94CD0183E391E08D
:100A80000E94CD01A0915602B091570220915202CE
:100A90003091530240915402509155020E94070C2C
:100AA0000E94E20820E030E04AE754E40E94410856
:100AB00042E00E94650280E391E00E94CD018AE25B
:100AC00091E00E94CD01A0915602B0915702209171
:100AD00052023091530240915402509155020E94AB
:100AE000070C0E94E20820E030E04AE754E40E944C
:100AF00041086B017C01609158027091590290E0AD
:100B000080E00E94E2089B01AC01C701B6010E948F
:100B1000F10920E030E040E752E40E94410842E061
:100B20000E94650286E291E00E94CD0185E891E095
:100B30000E94140288E891E00E94140285E891E086
:100B40000E94140210920001E0E2F1E02491ECE036
:100B5000F1E084918823C9F090E0880F991FFC018F
:100B6000EC50FF4F65917491FC01E651FF4FA59148
:100B7000B4919FB7F894FB018081209582238083F4
:100B80008C91E22FE823EC939FBF0E9408026093B0
:100B9000B1017093B2018093B3019093B4010E94AC
:100BA0000802C0909302D0909402E0909502F090D9
:100BB00096026C197D098E099F09C0905202D0904F
:100BC0005302E0905402F09055026C157D058E059D
:100BD0009F0528F30E940802609393027093940289
:100BE0008093950290939602809162028E3008F075
:100BF0008E5020910001F0E42F9F90011124877006
:100C0000822B80937C0080917A00806480937A00AC
:100C100080917A0086FDFCCF809178006091790008
:100C2000762F682F7093720260937102072E000C6A
:100C3000880B990B0E94E40820916D0230916E029E
:100C400040916F02509170020E94F1092091690257
:100C500030916A0240916B0250916C020E94CF0762
:100C60009B01AC010E94F10920917702309178023A
:100C70004091790250917A020E94D0074B015C01A9
:100C80008092770290927802A0927902B0927A02D2
:100C900080918102909182020196909382028093CA
:100CA0008102C0905602D0905702C816D90609F0AA
:100CB000B3C080917F02909180028C0D9D1D909316
:100CC000800280937F02F12CE12CC701B6010E94C3
:100CD000E2089B01AC01C501B4010E9441080E94D9
:100CE000B40A6093730270937402809375029093B8
:100CF00076020E94990920E030E040EA51E40E9427
:100D0000F10960937B0270937C0280937D02909343
:100D10007E0210928202109281021092770210924B
:100D200078021092790210927A0220918702309113
:100D300088024091890250918A020E94D007209136
:100D40008B0230918C0240918D0250918E020E9454
:100D5000CF0720918F0230919002409191025091E3
:100D600092020E94CF074B015C0180928302909215
:100D70008402A0928502B09286022DEC3CEC4CECF1
:100D80005DE30E94F1099B01AC0160E070E080E24C
:100D900091E40E945E0A69837A838B839C836091CD
:100DA00052027091530280915402909155020E9418
:100DB000E20820E030E04AE754E40E9441082B01B9
:100DC0003C01C701B6010E94E2089B01AC01C301CE
:100DD000B2010E94F10929813A814B815C810E9414
:100DE000F10920915A0230915B0240915C025091CE
:100DF0005D020E94D00760935A0270935B02809359
:100E00005C0290935D0242E0C501B4010E9465025C
:100E100086E891E00E94140280905602909057025A
:100E2000A0905802B0905902C0909702D0909802BA
:100E3000E0909902F0909A022FEFC21AD20AE20AC9
:100E4000F20A40907F0250908002712C612C8A9CA3
:100E5000D0018B9CB00D9A9CB00D1124A701960176
:100E60000E94070C461657066806790609F08AC0E4
:100E700060915202709153028091540290915502F8
:100E80000E94E20820E030E04AE754E40E94410872
:100E90002B013C01B40190E080E00E94E2089B013C
:100EA000AC01C301B2010E94F1092B013C01B50163
:100EB00090E080E00E94E2089B01AC01C301B20116
:100EC0000E94F1099B01AC0160915A0270915B0292
:100ED00080915C0290915D020E9441080E949909F4
:100EE00020E030E040E251E40E94F10960935E02AC
:100EF00070935F02809360029093610210925A0295
:100F000010925B0210925C0210925D02C0929702F6
:100F1000D0929802E0929902F0929A0243E00E94E5
:100F2000650285E691E00E94CD010E9408020E94C0
:100F3000E2086B017C016091B1017091B201809176
:100F4000B3019091B4010E94E2089B01AC01C7017A
:100F5000B6010E94CF0720E030E64AE657E40E943F
:100F6000410842E00E94650285E891E00E94140277
:100F70000E9408026093B1017093B2018093B301A3
:100F80009093B40140E050E0452B09F408CE0E9454
:100F90004A01882309F403CE0E94000000CE505875
:100FA000BB27AA270E94E7070C945A090E944C0904
:100FB00038F00E94530920F039F49F3F19F426F4C9
:100FC0000C9449090EF4E095E7FB0C944309E92FD2
:100FD0000E946B0958F3BA176207730784079507D5
:100FE00020F079F4A6F50C948D090EF4E0950B2E03
:100FF000BA2FA02D0B01B90190010C01CA01A0016B
:101000001124FF27591B99F0593F50F4503E68F1C5
:101010001A16F040A22F232F342F4427585FF3CF06
:10102000469537952795A795F0405395C9F77EF4D7
:101030001F16BA0B620B730B840BBAF09150A1F020
:10104000FF0FBB1F661F771F881FC2F70EC0BA0FA6
:10105000621F731F841F48F4879577956795B7952E
:10106000F7959E3F08F0B0CF9395880F08F0992729
:10107000EE0F9795879508950E941F0908F481E067
:1010800008950E9455080C945A090E94530958F07B
:101090000E944C0940F029F45F3F29F00C94430969
:1010A00051110C948E090C9449090E946B0968F344
:1010B0009923B1F3552391F3951B550BBB27AA2711
:1010C00062177307840738F09F5F5F4F220F331F4B
:1010D000441FAA1FA9F335D00E2E3AF0E0E832D013
:1010E00091505040E695001CCAF72BD0FE2F29D016
:1010F000660F771F881FBB1F261737074807AB07E8
:10110000B0E809F0BB0B802DBF01FF2793585F4F5C
:101110003AF09E3F510578F00C9443090C948E09E7
:101120005F3FE4F3983ED4F3869577956795B7953E
:10113000F7959F5FC9F7880F911D9695879597F949
:101140000895E1E0660F771F881FBB1F62177307C2
:101150008407BA0720F0621B730B840BBA0BEE1FD7
:1011600088F7E09508950E94730988F09F5798F0DA
:10117000B92F9927B751B0F0E1F0660F771F881F9C
:10118000991F1AF0BA95C9F714C0B13091F00E94B6
:101190008D09B1E008950C948D09672F782F882769
:1011A000B85F39F0B93FCCF3869577956795B395DD
:1011B000D9F73EF490958095709561957F4F8F4F4C
:1011C0009F4F0895E89409C097FB3EF49095809551
:1011D000709561957F4F8F4F9F4F9923A9F0F92FFD
:1011E00096E9BB279395F695879577956795B7957B
:1011F000F111F8CFFAF4BB0F11F460FF1BC06F5F61
:101200007F4F8F4F9F4F16C0882311F096E911C072
:10121000772321F09EE8872F762F05C0662371F093
:1012200096E8862F70E060E02AF09A95660F771FA7
:10123000881FDAF7880F9695879597F90895990F83
:101240000008550FAA0BE0E8FEEF16161706E80790
:10125000F907C0F012161306E407F50798F0621BB1
:10126000730B840B950B39F40A2661F0232B242B86
:10127000252B21F408950A2609F4A140A6958FEFA5
:10128000811D811D089597F99F6780E870E060E0F7
:1012900008959FEF80EC089500240A94161617060F
:1012A00018060906089500240A9412161306140657
:1012B00005060895092E0394000C11F4882352F0BA
:1012C000BB0F40F4BF2B11F460FF04C06F5F7F4F72
:1012D0008F4F9F4F089557FD9058440F551F59F059
:1012E0005F3F71F04795880F97FB991F61F09F3F13
:1012F00079F087950895121613061406551FF2CF3C
:101300004695F1DF08C0161617061806991FF1CF8B
:1013100086957105610508940895E894BB276627B2
:101320007727CB0197F908950E941F0908F48FEFE2
:1013300008950E94A90929ED3BE54EED5EE30C946A
:10134000F10916F00C94330B0C94490968940C9431
:1013500043090E947309A8F39923C1F3AEF3DF9305
:10136000CF931F930F93FF92C92FDD2788232AF075
:101370002197660F771F881FDAF720E030E040E8FA
:101380005FEB9FE3883920F0803E38F021968F771D
:101390000E94D007E8E6F0E004C00E94D007E5E92B
:1013A000F0E00E94480B8B01BE01EC01FB2E6F5751
:1013B00071097595771F880B990B0E94E40828E145
:1013C00032E741E35FE30E94040AAF2D9801AE01CA
:1013D000FF900F911F91CF91DF910E94E7070C942E
:1013E0005A090E94040A0C945A090E944C0938F0C8
:1013F0000E94530920F0952311F00C9443090C949A
:10140000490911240C948E090E946B0970F3959F71
:10141000C1F3950F50E0551F629FF001729FBB27EB
:10142000F00DB11D639FAA27F00DB11DAA1F649F87
:101430006627B00DA11D661F829F2227B00DA11D3A
:10144000621F739FB00DA11D621F839FA00D611DC0
:10145000221F749F3327A00D611D231F849F600DE1
:10146000211D822F762F6A2F11249F5750409AF00A
:10147000F1F088234AF0EE0FFF1FBB1F661F771F96
:10148000881F91505040A9F79E3F510580F00C9461
:1014900043090C948E095F3FE4F3983ED4F386959C
:1014A00077956795B795F795E7959F5FC1F7FE2B01
:1014B000880F911D9695879597F90895FA01EE0F7B
:1014C000FF1F309621053105A1F16115710561F409
:1014D0008038BFE39B0749F168949038810561F03B
:1014E0008038BFEF9B0741F099234AF5FF3FE105A4
:1014F0003105210519F1E8940894E795D901AA234B
:1015000029F4AB2FBE2FF85FD0F310C0FF5F70F44B
:10151000A695E0F7F73950F019F0FF3A38F49F77C5
:101520009F930DD00F9007FC9058089546F00C94AF
:10153000490960E070E080E89FE308954FE79F77F6
:101540005F934F933F932F930E94A9092F913F914F
:101550004F915F910E94F1090C94010B19F416F45C
:101560000C9449090C94330B0E947309B8F3992326
:10157000C9F3B6F39F57550B87FF0E94410B002418
:10158000A0E640EA900180585695979528F4805C33
:10159000660F771F881F20F026173707480730F49B
:1015A000621B730B840B202931294A2BA6951794B3
:1015B0000794202531254A2758F7660F771F881F83
:1015C00020F026173707480730F4620B730B840BA3
:1015D000200D311D411DA09581F7B901842F91582F
:1015E000880F9695879508950E941F09880B990B7F
:1015F000089529F416F00C9443090C948D090C9469
:1016000049090E947309A8F39638A0F707F80F92CA
:10161000E8942BE33AEA48EB5FE70E94070A0F924F
:101620000F920F924DB75EB70F920E94B10BE2EC92
:10163000F0E00E94480B4F915F91EF91FF91E5958B
:10164000EE1FFF1F49F0FE57E0684427EE0F441FCE
:10165000FA95E1F74195550B0E947B0B0F9007FE21
:101660000C946F0B08959F3F31F0915020F48795B3
:1016700077956795B795880F911D9695879597F9FA
:10168000089591505040660F771F881FD2F7089534
:10169000DF93CF931F930F93FF92EF92DF927B0123
:1016A0008C01689406C0DA2EEF010E94040AFE0144
:1016B000E894A5912591359145915591A6F3EF01B7
:1016C0000E94E707FE019701A801DA9469F7DF900D
:1016D000EF90FF900F911F91CF91DF9108959B01A3
:1016E000AC0160E070E080E89FE30C9441080C944A
:1016F00043090C94330B0E947309D8F39923C9F35F
:10170000940F511DA3F39150504094F059F0882349
:1017100032F0660F771F881F91505040C1F79E3FEF
:1017200051052CF7880F911D9695879597F9089587
:101730005F3FACF0983E9CF0BB2786957795679508
:10174000B79508F4B1609395C1F7BB0F58F711F442
:1017500060FFE8CF6F5F7F4F8F4F9F4FE3CF0C94B9
:101760008E09FA01DC01AA0FBB1F9B01AC01BF5718
:1017700028F4222733274427507820C0B75190F40B
:10178000AB2F0024469537952795011CA395D2F3DE
:10179000002071F0220F331F441FB395DAF30ED0EF
:1017A0000C94CF0761307105A0E88A07B94630F480
:1017B0009B01AC016627772788279078309621F027
:1017C00020833183428353830895A1E21A2EAA1BFA
:1017D000BB1BFD010DC0AA1FBB1FEE1FFF1FA217E1
:1017E000B307E407F50720F0A21BB30BE40BF50BDE
:1017F000661F771F881F991F1A9469F76095709567
:10180000809590959B01AC01BD01CF0108950E9488
:10181000180CA59F900DB49F900DA49F800D911D55
:1018200011240895EE0FFF1F0590F491E02D099407
:10183000A29FB001B39FC001A39F700D811D112411
:10184000911DB29F700D811D1124911D0895F89472
:10185000FFCF01000000008001E0000D01E8013E23
:10186000011C0130016E616E00696E66006F766664
:1018700000633A5C55736572735C5574696C697387
:1018800061746575725C4F6E654472697665202D72
:10189000204554535C475041203738385C4C6162D6
:1018A0006F7261746F6972655C746573745F636194
:1018B0006C63756C61746575725F4C65715C7465A1
:1018C00073745F63616C63756C61746575725F4C92
:1018D00065712E696E6F000D0A004C6571202864D9
:1018E000422053504C29094D696E7574657320C3AD
:0A18F000A9636F756CC3A96573004E
:107E0000112484B714BE81FFF0D085E080938100F7
:107E100082E08093C00088E18093C10086E0809377
:107E2000C20080E18093C4008EE0C9D0259A86E02C
:107E300020E33CEF91E0309385002093840096BBD3
:107E4000B09BFECF1D9AA8958150A9F7CC24DD24C4
:107E500088248394B5E0AB2EA1E19A2EF3E0BF2EE7
:107E6000A2D0813461F49FD0082FAFD0023811F036
:107E7000013811F484E001C083E08DD089C08234E0
:107E800011F484E103C0853419F485E0A6D080C0E4
:107E9000853579F488D0E82EFF2485D0082F10E0AE
:107EA000102F00270E291F29000F111F8ED06801E7
:107EB0006FC0863521F484E090D080E0DECF843638
:107EC00009F040C070D06FD0082F6DD080E0C81688
:107ED00080E7D80618F4F601B7BEE895C0E0D1E017
:107EE00062D089930C17E1F7F0E0CF16F0E7DF06D8
:107EF00018F0F601B7BEE89568D007B600FCFDCFD4
:107F0000A601A0E0B1E02C9130E011968C91119780
:107F100090E0982F8827822B932B1296FA010C0160
:107F200087BEE89511244E5F5F4FF1E0A038BF0790
:107F300051F7F601A7BEE89507B600FCFDCF97BE46
:107F4000E89526C08437B1F42ED02DD0F82E2BD052
:107F50003CD0F601EF2C8F010F5F1F4F84911BD097
:107F6000EA94F801C1F70894C11CD11CFA94CF0C13
:107F7000D11C0EC0853739F428D08EE10CD085E9AC
:107F80000AD08FE07ACF813511F488E018D01DD067
:107F900080E101D065CF982F8091C00085FFFCCF94
:107FA0009093C60008958091C00087FFFCCF809118
:107FB000C00084FD01C0A8958091C6000895E0E648
:107FC000F0E098E1908380830895EDDF803219F02E
:107FD00088E0F5DFFFCF84E1DECF1F93182FE3DFCA
:107FE0001150E9F7F2DF1F91089580E0E8DFEE27F6
:047FF000FF270994CA
:027FFE00040479
:00000001FF
